:100000000200037540057541027542017543017593
:1000100044017545037546037547017548057549E3
:1000200004754A01754B02754C01754D01754E0101
:10003000754F019080007404F09080047411F07486
:1000400052908011F0744B908012F0C2C0D2C190D7
:100050007FFBE0540160FB907FFAE0F520A2E0B363
:1000600082E282E19204A2E372E0B382E27204923D
:1000700004A2E272E1B382E072049204A2E1B372DC
:10008000E0B372E2B382E3720492C020E312908084
:1000900000E0F582E0F582E08520F053F00701B240
:1000A000908000E0F582E02401F582E08520F053A5
:1000B000F00FC5F06006C5F003D5F0FCF5F0A2F036
:1000C000B392C1E520540F2440F9E775890175F01A
:1000D00001ABF014600575F00E800375F007E7A41E
:1000E000FAC28C758A00D28C108D0280FBDAF2FA8B
:1000F000DBEF907FFAE0240130E4027400F0907F9F
:06010000FB7400F0014F4A
:00000001FF
