:1000000075400575410275420175430175440175DE
:100010004503754603754701754805754904754ADA
:1000200001754B02754C01754D01754E01754F01FF
:100030009080007404F09080047411F074529080E9
:1000400011F0744B908012F0C2C0D2C1907FFBE0DF
:10005000540160FB907FFAE0F520A2E0B382E282D7
:10006000E19204A2E372E0B382E272049204A2E29B
:1000700072E1B382E072049204A2E1B372E0B3725F
:10008000E2B382E3720492C020E312908000E0F5B4
:1000900082E0F582E08520F053F00701AF90800008
:1000A000E0F582E02401F582E08520F053F00FC5F1
:1000B000F06006C5F003D5F0FCF5F0A2F0B392C1F4
:1000C000E520540F2440F9E775890175F001ABF084
:1000D00014600575F00E800375F007E7A4FAC28C72
:1000E000758A00D28C108D0280FBDAF2FADBEF9079
:1000F0007FFAE0240130E4027400F0907FFB74008A
:03010000F0014CBF
:00000001FF
