:100000000200037452908000F0908001744BF0C2A3
:10001000C0D2C1907FFBE0540160FB907FFAE0F515
:1000200020A2E0B382E282E19204A2E372E0B38212
:10003000E272049204A2E272E1B382E072049204DA
:10004000A2E1B372E0B372E2B382E3720492C02021
:10005000030C908000E08520F053F0070168908049
:1000600001E08520F053F00FC5F06006C5F003D520
:10007000F0FCF5F0A2F0B392C1907FFBE500011314
:00000001FF
