:10000000782176FFE804F87600E804F87680E804C2
:10001000F876AAE804F876BFE804F876CCE804F8A5
:1000200076D5E804F876DBE804F876DFE804F876BD
:10003000E3907FFBE0540160F87400F0758901756E
:1000400020007408952060E975C500E520D2E3F52D
:10005000C5E5C5541060FAE5C6FC75F00A84F8746D
:100060002125F0F987FCE87B01117EEC95F075F015
:100070000A8470E575FCFF7B01117E0200967A64AC
:10008000C28C758CD8758AF0C28DD28C308DFDDA19
:0E009000EF7A64DBEB22E52004F5200200424B
:00000001FF
