:10000000782176FFE804F87600E804F87680E804C2
:10001000F876AAE804F876BFE804F876CCE804F8A5
:1000200076D5E804F876DBE804F876DFE804F876BD
:10003000E3907FFBE0540160F875FEFF7400F075FB
:1000400089017520007408952060E675C500E520DB
:10005000D2E3F5C5E5C5541060FAE5C6FC75F00AB3
:1000600084742125F0F987FC7B01117FEC95F075F4
:10007000F00A8470E775FCFF7B01117F0200977A1C
:1000800064C28C758CD8758AF0C28DD28C308DFD8F
:0F009000DAEF7A64DBEB22E52004F5200200456D
:00000001FF
