:100000000200039080007404F09080047411F07476
:1000100052908011F0744B908012F0C2C0D2C19007
:100020007FFBE0540160FB907FFAE0F520A2E0B393
:1000300082E282E19204A2E372E0B382E27204926D
:1000400004A2E272E1B382E072049204A2E1B3720C
:10005000E0B372E2B382E3720492C020E3129080B4
:1000600000E0F582E0F582E08520F053F0070182A0
:10007000908000E0F582E02401F582E08520F053D5
:10008000F00FC5F06006C5F003D5F0FCF5F0A2F066
:0B009000B392C1907FFB7400F0011FD1
:00000001FF
