:1000000002000375A0009080007404F09000047456
:1000100011F07452900011F0744B900012F0C2C0B5
:10002000D2C1907FFBE0540160FB907FFAE0F520A5
:10003000A2E0B382E282E19204A2E372E0B382E240
:1000400072049204A2E272E1B382E072049204A20A
:10005000E1B372E0B372E2B382E3720492C020E3D0
:1000600010908000E0F8E2F8E28520F053F00701FC
:1000700081908000E0F8E22401F8E28520F053F05E
:100080000FC5F06006C5F003D5F0FCF5F0A2F0B3A3
:0900900092C1907FFBE500012202
:00000001FF
