:1000000002000375A0009080007404F090800474D6
:1000100011F07452908011F0744B908012F0C2C0B5
:10002000D2C1907FFBE0540160FB907FFAE0F520A5
:10003000A2E0B382E282E19204A2E372E0B382E240
:1000400072049204A2E272E1B382E072049204A20A
:10005000E1B372E0B372E2B382E3720492C020E3D0
:1000600012908000E0F582E0F582E08520F053F008
:10007000070185908000E0F582E02401F582E085AB
:1000800020F053F00FC5F06006C5F003D5F0FCF585
:0D009000F0A2F0B392C1907FFBE5000122C9
:00000001FF
